S00D00004C434420342E73726563F0
S11300000C9434000C9451000C9451000C94510045
S11300100C9451000C9451000C9451000C94510018
S11300200C9451000C9451000C9451000C94510008
S11300300C9451000C9451000C9451000C945100F8
S11300400C9451000C9451000C94CD020C940303B5
S11300500C94F9020C9451000C9451000C9451002E
S11300600C9451000C94510011241FBECFEFD4E026
S1130070DEBFCDBF11E0A0E0B1E0E2EDF8E002C0E8
S113008005900D92A233B107D9F722E0A2E3B1E0C3
S113009001C01D92A933B207E1F70E9440030C94FA
S11300A067040C940000672B09F073C08A30910533
S11300B011F4289808958B30910511F42998089526
S11300C08C30910511F42A9808958D30910511F41E
S11300D02B9808958E30910511F42C9808958F3043
S11300E0910511F42D9808958031910511F42E98FD
S11300F008958131910511F42F9808958431910563
S113010011F4409808958531910511F441980895AA
S11301108631910511F4429808958731910511F4BF
S1130120439808958831910511F4449808958931CC
S1130130910511F4459808958A31910511F4469872
S113014008958E31910511F4589808958F319105D1
S113015011F4599808958032910511F45A9808952C
S11301608132910511F45B9808958232910511F45E
S11301705C9808958332910511F45D980895843252
S1130180910511F45E980895859709F073C05F98FE
S113019008958A30910511F4289A08958B309105B9
S11301A011F4299A08958C30910511F42A9A08952E
S11301B08D30910511F42B9A08958E30910511F428
S11301C02C9A08958F30910511F42D9A0895803159
S11301D0910511F42E9A08958131910511F42F9A05
S11301E008958431910511F4409A0895853191055B
S11301F011F4419A08958631910511F4429A0895B3
S11302008731910511F4439A08958831910511F4C9
S1130210449A08958931910511F4459A08958A31D3
S1130220910511F4469A08958E31910511F4589A66
S113023008958F31910511F4599A089580329105EA
S113024011F45A9A08958132910511F45B9A089534
S11302508232910511F45C9A08958332910511F468
S11302605D9A08958432910511F45E9A08958597F4
S113027009F45F9A0895CF93C82F80FF07C061E007
S113028070E082E290E00E94530006C060E070E0FB
S113029082E290E00E945300C1FF07C061E070E079
S11302A083E290E00E94530006C060E070E083E2C5
S11302B090E00E945300C2FF07C061E070E084E256
S11302C090E00E94530006C060E070E084E290E099
S11302D00E945300C3FF07C061E070E085E290E034
S11302E00E94530006C060E070E085E290E00E9446
S11302F05300CF910895CF93C82F60E070E08AE057
S113030090E00E9453008C2F0E943B0161E070E05A
S11303108BE090E00E9453008FE99FE00197F1F792
S113032000C0000060E070E08BE090E00E945300A9
S11303308FE99FE00197F1F700C00000CF91089585
S113034080E00E947B0181E00E947B010895CF93AD
S1130350C62F813059F480E8860F82958F700E94F1
S11303607B018C2F8F700E947B010CC0823051F472
S113037080EC860F82958F700E947B018C2F8F708A
S11303800E947B01CF91089580E00E943B012FEFF2
S113039089EF90E0215080409040E1F700C00000D8
S11303A083E00E947B018FE19EE40197F1F700C096
S11303B0000083E00E947B018FED9BEA0197F1F737
S11303C000C0000083E00E947B0182E00E947B0168
S11303D082E00E947B0188E00E947B0180E00E9411
S11303E07B018CE00E947B0180E00E947B0186E01F
S11303F00E947B010895CF93C82F61E070E08AE0EA
S113040090E00E9453008C2F82958F700E943B01D4
S113041061E070E08BE090E00E9453008FE99FE080
S11304200197F1F700C0000060E070E08BE090E01D
S11304300E9453008FE99FE00197F1F700C000008C
S11304408C2F8F700E943B0161E070E08BE090E0A4
S11304500E9453008FE99FE00197F1F700C000006C
S113046060E070E08BE090E00E9453008FE99FE031
S11304700197F1F700C00000CF910895CF93DF9367
S1130480EC018881882331F021960E94FB01899137
S11304908111FBCFDF91CF9108959093C500809394
S11304A0C400E1ECF0E08081806880838081886111
S11304B08083E2ECF0E08081866280830895E6E345
S11304C0F1E001900020E9F73197E653F140EF3F66
S11304D0F105A1F420E030E0A9014F5F5F4FFA017C
S11304E0EA5CFE4F9081F901EA5CFE4F90839A0129
S11304F04E3F510589F7809334020895EA5CFE4F1C
S113050080830895F894E6E3F1E001900020E9F790
S11305103197BF016653714011F18091360161300A
S1130520710521F06150710921F414C01092360153
S113053017C020E030E0A9014F5F5F4FFA01EA5C89
S1130540FE4F9081F901EA5CFE4F90839A014617B1
S1130550570789F7FB01EA5CFE4F108201C080E077
S1130560789408959C0161157105B1F0E1ECF0E017
S1130570908195FDFDCF309338022093370270931C
S11305803501609334011092330110923201E1EC91
S1130590F0E080818062808308951F920F920FB6ED
S11305A00F9211242F933F934F935F936F937F93F5
S11305B08F939F93AF93BF93EF93FF938091C60064
S11305C080933602809136020E945F0210923602B6
S11305D0FF91EF91BF91AF919F918F917F916F9117
S11305E05F914F913F912F910F900FBE0F901F90ED
S11305F018951F920F920FB60F9211240F900FBEF1
S11306000F901F9018951F920F920FB60F921124FE
S11306102F933F938F939F93EF93FF9320913201F6
S113062030913301809134019091350128173907B5
S1130630B8F48091320190913301E0913702F09146
S11306403802E80FF91F80818093C600809132013F
S1130650909133010196909333018093320105C048
S1130660E1ECF0E080818F7D8083FF91EF919F9199
S11306708F913F912F910F900FBE0F901F9018955F
S1130680CF93DF93CDB7DEB7E5970FB6F894DEBF0F
S11306900FBECDBF80910001909101019CA38BA35B
S11306A080910201909103019EA38DA3FE01B79650
S11306B08FE0DF011D928A95E9F7B69782E2DF01A8
S11306C01D928A95E9F7B4969E012B5C3F4F80E218
S11306D08193E217F307E1F787E690E00E944D0269
S11306E08FEF8AB984B90E94C401789461E081E0F3
S11306F00E94A70183E191E00E943E026AE070E05B
S113070082E291E00E94B202BFEF27EA31E6B150E3
S113071020403040E1F700C000000E94A00100E04A
S113072010E0E12CF12CA12C0F2EF1E19F2EF02DE5
S1130730712C812C0F2EFFE05F2EF02D612C0E9476
S113074082028BA3882309F45DC08F3779F40115E5
S1130750110519F00150110984C0E114F10479F371
S113076081E0E81AF108052D162D7BC08D3061F467
S11307709FEFE91AF90A65E070E08CE291E00E94CB
S1130780B202072D182D23C0602F81E08E0D0E9428
S1130790A7018BA10E94FB019E9CC0019F9C900D10
S11307A01124BE016D5D7F4FA1E0B0E0AC0FBD1F11
S11307B08A0F9B1F0E9455040F30110530F0BFEFC4
S11307C0EB1AFB0A072D182D02C00F5F1F4F22E002
S11307D0E216F1040CF4B3CF31E0E31AF108BE01E0
S11307E06E5E7F4FCE0101960E9460040E94A001BC
S11307F06A2D81E00E94A701CE0101960E943E026B
S1130800AA8A9DCF0031110530F0670182E0C80E3D
S1130810D11CBA2C05C067019FEFC91AD90AB02EA2
S11308206B2D8C2D0E94A7018FE50E94FB01AFEF79
S1130830B3EC29E0A150B0402040E1F700C0000033
S11308406B2D8C2D0E94A70180E20E94FB013FEFDB
S113085083EC99E0315080409040E1F700C0000003
S11308606ECF9E9C60019F9CD00C1124A1E0B0E04F
S1130870AC0FBD1FCA0EDB1EF60101900020E9F784
S1130880329710826A2DBB24B394BE0C8B2D0E9428
S1130890A701CE0185960E943E026A2D8B2D0E94EF
S11308A0A701C6010E943E024ACFFB01DC010D9064
S11308B00020E9F7119701900D920020E1F70895C7
S11308C0FB01DC0101900D920020E1F70895F894FA
S10508D0FFCF54
S11308D20000000000000000000000000000000012
S11308E200000048656C6C6F204D79204C6F726477
S11308F221000A2048656C6C6F200A000A4F4B0ADB
S10509020000EF
S9030000FC
